:020000040800F2
:10000000982F0020C1010008AF460008613F00089A
:10001000AD46000839110008A95100080000000091
:10002000000000000000000000000000ED49000892
:100030004713000800000000F5460008EF490008DB
:10004000DB010008DB010008DB010008DB01000820
:10005000DB010008DB010008DB010008DB01000810
:1000600049130008DB010008DB010008FD1100084E
:1000700009120008DB01000815120008211200080F
:10008000DB0100082D120008DB010008DB0100087D
:100090003D110008DB010008DB010008DB0100085E
:1000A000DB010008DB010008DB010008DB010008C0
:1000B000DB010008DB010008A54A0008DB0100089D
:1000C000DB010008DB010008DB010008DB010008A0
:1000D000DB01000849510008DB01000875510008E8
:1000E000DB010008DB010008DB010008DB01000880
:1000F000DB010008DB010008DB010008DB01000870
:10010000DB010008DB010008B14A0008DB01000840
:10011000DB010008DB010008BD4A0008DB01000824
:10012000DB0100083912000845120008DB01000855
:10013000DB010008DB010008DB010008DB0100082F
:10014000DB01000849110008DB010008DB010008A1
:10015000DB01000851120008DB0100088D51000886
:10016000DB010008DB010008DB010008DB010008FF
:10017000DB010008DB010008DB01000800000000D3
:10018000DB010008DB010008CD4D0008E54D00084B
:10019000DB010008DB010008DB010008DB010008CF
:1001A0000000000000000000DB010008DFF80CD0B8
:1001B00000F018FC00480047C5A80008982F002050
:1001C0000648804706480047FEE7FEE7FEE7FEE7F1
:1001D000FEE7FEE7FEE7FEE7FEE7FEE7894A0008E6
:1001E000AD0100089FED1A1AF5EE000A40EE010A73
:1001F000BDEEE00AF5EEC00A10EE100AF1EE10FABC
:1002000038BF401E00EE100A1349F7EE001AB8EE90
:10021000C00A30EEC00ADFED0F0A20EE200AFCEE25
:10022000C00A10EE900AC0F3080000EE900A01EB3D
:100230008000F8EE600A90ED011A70EE600A90ED11
:10024000000A71EEE01A21EE800A00EE810A704782
:1002500083F9223E00000044A0C50008DFED190A22
:10026000B5EEC00A60EE200ABDEEE01A11EE100AEB
:10027000F1EE10FA38BF401E00EE100A1349F7EEF7
:10028000001AB8EEC00A30EEC00ADFED0F0A60EEC9
:10029000200ABCEEE00A10EE100AC0F3080000EEDF
:1002A000100A01EB8000B8EE400A90ED011A70EEE2
:1002B000C00A90ED000A71EEE01A21EE800A00EE0D
:1002C000810A704783F9223E00000044A0C500085F
:1002D0002DE9F05F0546002092469B46884606467B
:1002E000814640241BE0284641464746224600F00E
:1002F00072FA53465A46C01A914110D31146184615
:10030000224600F059FA2D1A67EB01084F462246A3
:100310000120002100F050FA17EB00094E41201E89
:10032000A4F10104DFDC484631462A464346BDE8D5
:10033000F09F40EA01039B0703D009E008C9121FA0
:1003400008C0042AFAD203E011F8013B00F8013B8F
:10035000521EF9D27047D2B201E000F8012B491EBB
:10036000FBD270470022F6E710B513460A46044652
:100370001946FFF7F0FF204610BD2DE9FE4F8046DD
:1003800081EA0300C00F0C46009021F0004123F0E9
:100390000045B8EB0200A94105D2404621469046EF
:1003A0001C460B46024623F00040104347D0270D61
:1003B000C7F30A00C3F30A510290401A0190402883
:1003C0006BDAC3F3130040F4801B0098924620B10F
:1003D0000023D2EB030A63EB0B0B01985946C0F1E3
:1003E0004002504600F0E8F906460D465046594690
:1003F000019A00F000FA10EB08006141002487EA3E
:10040000115284EAE7731A4340D0009A62B3019A0A
:10041000012A4FEA075215DC001B61EB02014FF085
:10042000004202EA0752CDE90042001C41F580116A
:1004300032462B4600F037FA03B0BDE8F08F404655
:100440002146F9E7001B61EB0201001C41F5801316
:1004500000185B412018A2F5001747EB030140EAA2
:10046000D570B6196D4111E06D084FEA360645EAC0
:10047000C0754FEA0752001B61EB0201001C41F5F9
:10048000801149084FEA30000019514132462B468D
:1004900003B0BDE8F04F00F0F7B90098012240002A
:1004A0000023D0EB020263EBE073009821464FEA91
:1004B000E074B8EB000061EB0401E9E783F000436E
:1004C0005BE781F0004158E72DE9FE4F81EA030424
:1004D00004F0004421F0004100944FF0000B23F0A1
:1004E000004350EA01045ED052EA03045BD0C3F338
:1004F0000A54C1F30A552C44A4F2F3340194A0FB2E
:100500000254C1F3130141F48011C3F3130343F404
:10051000801301FB024400FB034E840A970A44EA5D
:10052000815447EA8357A4FB076802958D0A05FBAF
:1005300007854FEA932C04FB0C542705029D4FEAD4
:10054000065847EA1637B5EB08056EEB070C870E21
:10055000920E47EA811742EA8312A7FB0201B6EB2B
:100560000B0164EB00042B0D43EA0C335E1844EBE3
:100570001C50DA465146E7FB0201C5F313044FEA6B
:100580000B3343EA14534FEA0432019C43EA060357
:10059000A4F10C040294009CCDE900B400F083F9AE
:1005A00003B0BDE8F08F00200146F9E72DE9F04DDA
:1005B00081EA030404F0004B21F0004514464FF09B
:1005C000000A23F0004150EA050220D054EA01025B
:1005D0001DD0C5F30A570246C5F31303C1F3130038
:1005E000C1F30A5640F4801543F48013A7EB0608C4
:1005F000101BD64608F2FD3873EB050002D308F154
:10060000010801E092185B41B8F1000F03DA002005
:100610000146BDE8F08D00204FF480110646844667
:100620000EE0171B73EB050705D3121B63EB0503E5
:1006300006434CEA010C49084FEA300092185B412E
:1006400050EA0107EDD152EA030012D082EA040019
:1006500083EA0501084305D0101BAB4106D20122F5
:10066000002306E000224FF0004302E06FF0010299
:1006700053101AEB06004CEB085110EB0A0041EB4B
:100680000B01BDE8F04D00F0FFB80EB5C10F80EAD8
:10069000E0700844CA07002140F233438DE80E00A1
:1006A0000A460B4600F0FFF803B000BD0EB540F25D
:1006B000334102910021CDE900110A460B4600F0BA
:1006C000F2F803B000BDC1F30A5210B5C1F3130133
:1006D00040F2FF3341F480119A4201DA002010BD4C
:1006E00040F233439A42A2F2334203DC524200F01A
:1006F00072F810BD904010BD00F0004230F0004094
:100700000AD0C10D01F56071C0F3160042EA015133
:10071000C20840071143704700200146704700009F
:1007200030B5041E71F1000404DB4FF00044404278
:1007300064EB0101141E73F1000405DB1C464FF04D
:100740000043524263EB04038B4208BF824230BD38
:1007500030B5041E71F1000404DB4FF00044404248
:1007600064EB0101141E73F1000405DB1C464FF01D
:100770000043524263EB0403994208BF904230BDEC
:1007800001F0004330B421F0004150EA010206D0EC
:100790000A0DA2F56072C1F31301002A02DC30BC1D
:1007A00000207047440F44EAC104C100E01830BC87
:1007B00000EBC25000F031B8202A04DB203A00FAE6
:1007C00002F1002070479140C2F1200320FA03F3A8
:1007D000194390407047202A04DB203A21FA02F0A6
:1007E0000021704721FA02F3D040C2F1200291406B
:1007F000084319467047202A06DBCB17203A41FAF6
:1008000002F043EAE07306E041FA02F3D040C2F19D
:10081000200291400843194670470029A8BF70473D
:10082000401C490008BF20F00100704710B4B0FA26
:1008300080FC00FA0CF050EA010404BF10BC7047C1
:1008400049B1CCF1200421FA04F411FA0CF118BFDB
:10085000012121430843A3EB0C01CB1D4FEA0061AA
:100860004FEA102042BF002010BC704700EBC3507D
:1008700010440029A4BF10BC7047401C490008BFA9
:1008800020F0010010BC704710B5141E73F1000475
:1008900008DA401C41F1000192185B411A4301D172
:1008A00020F0010010BD2DE9F04D92469B4611B19C
:1008B000B1FA81F202E0B0FA80F220329046FFF7FE
:1008C0007BFF04460F4640EA0A0041EA0B0153460B
:1008D0005A46084313D0114653EA010019D0C8F113
:1008E00040025046FFF777FF05460E4650465946F0
:1008F0004246FFF761FF084305D0012004E020468F
:100900003946BDE8F08D0020054346EAE0762C43E9
:1009100037430A986305E40AA0EB08000022FD0AA9
:1009200044EA47540A3002D500200146E9E70105B0
:1009300010196941DDE9084500196941BDE8F04D2C
:10094000A2E72DE9F04D00231A461B1A8A4103DB6A
:1009500000200146BDE8F08DC1F30A52C1F3130136
:1009600041F480154FF0000BD10702D100186D4102
:10097000521E0027044640F2FF11384601EB620A7E
:100980003E468046024600204FF48011FFF723FFC9
:10099000C2197141BB1846EB0100B4EB030C75EBB7
:1009A000000C04D3E41A65EB000517460E46241923
:1009B00008F101006D4180463428E3DDF91946EB6A
:1009C0000600091BA84103D24FF0FF32134601E095
:1009D000002213461BEB070046EB0A51BDE8F04D21
:1009E000FFF752BF064C074D06E0E06840F00103F8
:1009F00094E8070098471034AC42F6D3FFF7DAFBCF
:100A0000E8CF000808D0000870B5C1F30A5201F021
:100A100000450024C1F3130140F2FF3341F480117B
:100A20009A4201DA002070BD40F233439A42A2F2AA
:100A3000334203DC5242FFF7CEFE00E090402C43ED
:100A4000F1D0404270BD70B58C1810F8015B15F004
:100A5000070301D110F8013B2A1106D110F8012B30
:100A600003E010F8016B01F8016B5B1EF9D12B0755
:100A700005D40023521E0DD401F8013BFAE710F80B
:100A8000013BCB1A921C03E013F8015B01F8015BF8
:100A9000521EF9D5A142D8D3002070BDD0ED000A76
:100AA000F4EEC00AF1EE10FA02DD80ED000A7047A4
:100AB000B1EE400AF4EEC00AF1EE10FAF7D280ED82
:100AC000000A704730B505460C46002D0CD0022CAC
:100AD0000AD90648A11E0288284600F039FC2919C7
:100AE00001F8020D000A487030BD00009801002096
:100AF00030B505460C46002D09D0022C07D9FF223F
:100B0000611E284600F03CFC291901F8010C30BD9B
:100B10000B4690F83810012908D10179C90705D092
:100B200000F1800198221846FFF703BC00201870DE
:100B3000704780ED000A002180F83810982180303D
:100B4000FFF710BC2DE9F04F04462DED048B8BB060
:100B500094F8380001287DD12079C1077AD001218D
:100B600084F88010C0F34100022808D0012808D082
:100B70000427C4F884704FF001080025BFE0022765
:100B8000F7E70327F5E794ED0F0A8DED080AD4ED9A
:100B9000100ACDED090AB8F1000F02D094ED111A38
:100BA00001E094ED131A8DED0A1A4FEA450001EEAB
:100BB000900AF8EEE11A9FED582A21EE822A01EE02
:100BC000907AF8EEE12AC2EE221A94ED122A71EE22
:100BD000828A02D0D4F8250001E0D4F8290009EE79
:100BE000100A01A8F0EE681AB0EE492A0AF0E3FDF7
:100BF00005EB450004EB800B01A807C8CBE91512F3
:100C0000CBF850009DED031ADDED020A9DED010ABF
:100C10000AF074FD08A805AB07C807C3CDED048A28
:100C200000263E4905EB850001EB8009C5EB051068
:100C3000503101EB800A94ED001AD4ED0D0A0AF050
:100C4000B5FDB0EE408A09EB860080ED008A08A869
:100C500007C800E05BE005AB07C3CDED048AD4F81C
:100C60002100B0EE480A02EE100AD4F81D0004A9D3
:100C700001EE900AD4F8190001EE100AD4F815001C
:100C800000EE900A05A80AF0BCFD01A8B0EE492AC2
:100C9000DDED041A9DED071ADDED060A9DED050A4E
:100CA0000AF089FD9DED031ADDED020A9DED010AB2
:100CB0000AF024FD01A906EB46000EC90AEB8000EC
:100CC0000EC0761C052EB6DB01A90BF180000EC903
:100CD000CBE92323CBF88810DDED040A04EB850172
:100CE000C1ED2E0A81ED320A81ED368A05A9683000
:100CF0000EC90EC0042F01D188F001086D1CBD4241
:100D0000FFF641AF0BB0BDEC048BBDE8F08F0020C7
:100D100084F88000F6E70000DB0F49400C0A002051
:100D200090F83810012934D10179C90731D0D0F8B1
:100D30001510D0ED0F0A01EE101A9FED160A41EEC4
:100D4000000AC0ED0F0AD0F8191090ED101A00EE4D
:100D5000901A00EE801A80ED101AD0F81D1090ED58
:100D6000111A00EE901A00EE801A80ED111AD0F8D8
:100D7000212090ED121A00EE902A00EE801A80EDEC
:100D8000121A90ED131A00EE901A00EE801A80ED00
:100D9000131A70476F12033B10B50446104691EDCD
:100DA000000A84ED0D0A01462D22201DFFF7C1FA2D
:100DB000012084F83800D4F80500E063D4F8090075
:100DC0002064D4F80D006064D4F81100A064D4F855
:100DD0002D00E06410BD03460846197A012906D0AB
:100DE000017821F0010121F0020101707047182201
:100DF00003F1BC01FFF79DBA80ED000AC0ED010AC6
:100E00000021017290F8BC1021F0010121F00201D3
:100E100080F8BC1070470000F0B504462DED108B33
:100E200081B0207A01287DD194F82000C00779D0C4
:100E3000606A04280CD09FED94CADFED94EAF0EECE
:100E40006EAA0427D4ED04FA94ED05BA0025C1E09A
:100E50009FED8FCAF1E705EB450004EB8006D6ED68
:100E6000220A96ED230A04F017FEF0EE400AB0EED7
:100E70006E0A03F007FDB0EE408A04EB8500B0EE89
:100E80006E0AD0ED160A03F0FDFCF0EE408AF0EE9B
:100E9000480AB0EE681AB0EE6E0A03F0D9FCB5EE5F
:100EA000C00AF1EE10FA0ADDB0EE681AF0EE480A58
:100EB000B0EE6E0A03F0CCFCF0EE409A09E0B0EE22
:100EC000681AF0EE480AB0EE6E0A03F0C1FCF1EECB
:100ED000409AF4EECC9AF1EE10FA7ADCD6ED0A0ADA
:100EE00096ED0B0A04F0D8FDD4ED060A70EE200A48
:100EF000B0EE6E0A03F0C6FCF0EE40BAF0EE6F0AF8
:100F0000B0EE6B1AB0EE6E0A03F0A2FCB5EEC00AAA
:100F1000F1EE10FA0CDDB0EE6B1AF0EE6F0AB0EEE7
:100F20006E0A00E0A7E003F093FCF0EE408A09E0CF
:100F3000B0EE6B1AF0EE6F0AB0EE6E0A03F088FCAA
:100F4000F1EE408A96ED0A0AD6ED0B0A20EE000A71
:100F500000EEA00AB5EEC00AF1EE10FA04DBF1EEE5
:100F6000C00ACDED000A03E09FED4A0A8DED000AAC
:100F700094ED031AD6ED0C0A9DED000A00F0A6F8D8
:100F8000D4ED070A30EEC09A3BEE498AB5EEC08A2E
:100F9000F1EE10FA01DC39EE4B8AF4EEC88AF1EE7C
:100FA00010FA02DDB0EE68AA01E0B0EE48AAB4EE95
:100FB000EAAAF1EE10FA0CD2F0EE4AAAB0EE49DA43
:100FC000F0EE6BCAB0EE69FAF0EE68DAB0EE48EA1D
:100FD0002F466D1C606AA8423FF73DAF042F42D2F6
:100FE00094F8BC0040F0010084F8BC00C4ED30CAA5
:100FF00084ED31DA07EB470004EB8000D0E90A12F8
:10100000006B44F8C81FC4E90120C83C04EB870505
:10101000D4ED010A95ED1A0A20EE0E0AB4EEE00AAC
:10102000F1EE10FA19D2B0EE4F0AFFF7DBF8D4ED6B
:10103000000A20EE200AD5ED1A0A60EEAD0AB4EEE1
:10104000E00AF1EE10FA08DD14F8BC0F40F00200DF
:10105000207001B0BDEC108BF0BD14F8BC0F20F077
:1010600002002070F5E714F8BC0F20F0010020F01A
:1010700002002070EDE714F8BC0F20F0010020F012
:1010800002002070E5E700007CD9A03FDB0FC940DB
:101090003B46713F0000000070B504462DED028B09
:1010A0001546B0EE408A142204F10C00FFF741F916
:1010B0009822294604F12000FFF73BF90120207215
:1010C00084ED2E8ABDEC028B70BD000070B52DED55
:1010D000068BB0EE409AF0EE608AF0EE419AB0EEE8
:1010E000688A0024134DF0EE490AB0EE480A04F075
:1010F000D3FCB0EE40AAF0EE690AB0EE4A1AB0EEA8
:10110000490A0AF01FFB38EEC00A38EE008AB5EE35
:10111000C00AF1EE10FA01DCB1EE400A10EE100A3E
:10112000A84202DB641C142CDDDBB0EE4A0ABDECE5
:10113000068B70BD6F12833AFEE70000014800F095
:101140000CBB00007C0C0020014800F006BB000036
:10115000A40C002030B500214FF0E024A369084A18
:1011600052685043A2699A4202D21944891A03E094
:10117000656919442944891A13468142F2D330BD66
:101180009000002001480068704700009401002092
:1011900008B50146FFF7F6FF00900098884202D399
:1011A0000098401A08BDC8430099084408BD00B51E
:1011B000024601201070FFF7E5FF5060916000BD0E
:1011C00000B502461078012805D001201070FFF705
:1011D000D9FF5060916000BD10B502460024107820
:1011E000002808D05068FFF7D3FF9168884202D3E7
:1011F000012400201070204610BD0000014800F0BE
:10120000D9BD0000A0100020014800F0D3BD0000AF
:1012100060110020014800F0CDBD0000E00F00206B
:10122000014800F0C7BD0000C0110020014800F0D7
:10123000C1BD000040100020014800F0BBBD00000F
:1012400020120020014800F0B5BD00000011002070
:10125000014800F0AFBD00008012002001680A4B79
:10126000CAB2103AA3FB02321209084B9B5CC36559
:10127000032A04D96FF30901091D816502E06FF3A8
:1012800009018165806D7047ABAAAAAA98C20008BF
:10129000014600208A6A8B69002B0FD0B3F5005FEE
:1012A0001DD08AB3012A30D0022A2ED0032A04D1BD
:1012B000C96A11F0807F00D0012070471AB1012A5D
:1012C00007D0022AF9D1C96A11F0807FF5D0012038
:1012D0007047C96AB1F1C07FFAD1012070475AB195
:1012E000012A0BD0022A07D0032AF7D1C96AB1F12B
:1012F000C07FF3D10120704701207047C96A11F007
:10130000807FFAD001207047FFE70120704710B4BA
:10131000D0F800C0DCF8004024F48024CCF8004071
:10132000D0F800C0CCF804308368402B05D00368A7
:1013300099600068C26010BC704703689A600068DA
:10134000C16010BC70477047042000F013BF7047A5
:1013500010B503461046002B01D0084C0AE04FF6AA
:10136000FF7010BD13F8012B4240D2B234F81220A6
:1013700082EA1020491E4A1CF4D110BDA0C3000807
:1013800010B5054C03E010F8013B5340E25C491EE8
:101390004B1CF8D1104610BDA0C2000890F82020C8
:1013A000012A07D0022A05D0416A41F48021416216
:1013B0000120704700684269114341610020704775
:1013C00070B490F82040D0F800C0DCF808C0012CC0
:1013D00008D0022C06D0416A41F48021416270BCE1
:1013E000012070470CF080640CF000652C430CF079
:1013F00080552C435FD0CCF3016CBCF1020F06D9B1
:10140000416A41F40001416270BC0120704701242F
:1014100004FA0CF41C608B684FF4C0749BB1CD6867
:1014200004EB0C162B434D6843EAC5030568AB512A
:101430004FF4C273066803EB0C130D69F550097D78
:10144000012909D00DE00D88CB6804EB0C1643EAA6
:1014500045530568AB51EBE70168CD5845F48075FD
:10146000CD501179D379557941EA036193791B0401
:1014700043EA052319434FF4C675036805EB0C15C1
:1014800059511178D37841EA0361937852781B045B
:1014900043EA022211434FF4C473026803EB0C13B6
:1014A000D150006804EB0C11425842F00102425046
:1014B00070BC00207047416A41F40011416270BC69
:1014C0000120704790F82020012A07D0022A05D079
:1014D000416A41F480214162012070474248D0F8BE
:1014E000002242F00102C0F80022D0F8002222F4CB
:1014F0007C52C0F80022D0F800224B6A42EA032254
:10150000C0F800220A7D012302F01F0203FA02F252
:10151000D0F81C329343C0F81C32CB69D3B9D0F851
:101520000C329343C0F80C32B1F80CC04B686CF32A
:101530001F43D1F814C000EBCC0CCCF84032B1F80A
:1015400008C00B686CF31F43D1F814C000EBCC0C3F
:10155000CCF84432CB69012B1AD1D0F80C321343AA
:10156000C0F80C32B1F800C04B686CF31F43D1F8DF
:1015700014C000EBCC0CCCF84032B1F808C0CB68FA
:101580006CF31F43D1F814C000EBCC0CCCF8443200
:101590008B697BB1D0F804321343C0F804320B6975
:1015A00073B1D0F814321343C0F81432096A012918
:1015B0000CD010E0D0F804329343C0F80432EEE7C8
:1015C000D0F814329343C0F81432EFE7D0F81C126D
:1015D0001143C0F81C12D0F8001221F00101C0F82C
:1015E000001200207047000000640040704710B4F3
:1015F00090F820C0BCF1010F09D0BCF1020F06D059
:10160000416A41F48021416210BC0120704739B128
:10161000D0F800C0DCF810C01CF0030F7DD006E04D
:10162000D0F800C0DCF80CC01CF0030F7BD04FF4E6
:10163000D87C04680CEB011C54F80C4004F0040442
:101640009460002C7DD0046854F80C40E408546089
:10165000046854F80CC00CF0020CC2F80CC04FF433
:10166000DA7C04680CEB011C54F80C4004F00F0405
:101670001461046854F80C40C4F3072494610468AE
:1016800054F80CC04FEA1C4CC2F814C04FF4DC7282
:10169000D0F800C002EB01125CF802C083F800C071
:1016A000D0F800C05CF802C04FEA1C2C83F801C0DF
:1016B000D0F800C05CF802C04FEA1C4C83F802C0AE
:1016C000D0F800C05CF80220120EDA704FF4DE721F
:1016D000D0F800C002EB01125CF802C083F804C02D
:1016E000D0F800C05CF802C04FEA1C2C83F805C09B
:1016F000D0F800C05CF802C04FEA1C4C83F806C06A
:10170000D0F800C05CF80220120EDA71F9B100685E
:10171000016941F02001016102E00BE003E010E00B
:1017200010BC00207047416A41F40011416210BCB6
:1017300001207047416A41F40011416210BC012050
:101740007047046854F80C40640D146080E700682A
:10175000C16841F02001C160DEE72DE9F05F054678
:10176000002428684669D0F804908768D0F80CA057
:10177000D0F810B0D0F8188016F0010F54D017F040
:10178000010F17D00121816017F0020F03D0284606
:1017900000F0A6FA0EE017F0040F02D04FF4006438
:1017A00008E017F0080F02D04FF4805402E02846FA
:1017B00000F095FA17F4807F19D029684FF48070F3
:1017C000886017F4007F03D0284600F08BFA0EE003
:1017D00017F4806F02D044F4005408E017F4006F4F
:1017E00002D044F4804402E0284600F07AFA17F46C
:1017F000803F19D029684FF48030886017F4003F8B
:1018000003D0284600F070FA0EE017F4802F02D0C3
:1018100044F4004408E017F4002F02D044F480346C
:1018200002E0284600F05FFA16F0080F07D01AF021
:10183000100F04D044F4007429681020C86016F01A
:10184000040F4FF0080707D01AF0080F04D02868DB
:10185000C760284600F0D0F916F0020F07D02868BC
:10186000C06810F0030F02D0284600F0C7F916F048
:10187000400F07D01BF0100F04D044F48064296897
:101880001020086116F0200F07D01BF0080F04D0BD
:1018900028680761284600F0CFF916F0100F07D02E
:1018A0002868006910F0030F02D0284600F0C6F93E
:1018B00016F4003F08D019F0100F05D02968102049
:1018C0004860284600F0D8F916F4803F07D019F098
:1018D000080F04D028684760284600F006FA16F47E
:1018E000004F4AD019F0040F44D016F4807F04D082
:1018F00018F0010F01D044F0010416F4007F04D069
:1019000018F0020F01D044F0020416F4806F04D0E6
:1019100018F0040F01D044F0040416F4006F29D02D
:1019200018F0700F26D008F07000402815D006DCA3
:10193000102809D020280AD0302816D10AE05028D3
:101940000ED0602811D10EE044F008040DE044F000
:1019500010040AE044F0200407E044F0400404E0EE
:1019600044F0800401E044F480742868816921F027
:1019700070018161296804204860002C05D0686AE4
:10198000204368622846FFF731FEBDE8F09F70B53E
:101990000446002C03D094F8200010B104E001208C
:1019A00070BD204600F0A8F82068016841F00101F0
:1019B000016000F009FD0546206840684FF005060B
:1019C00010F0010F11D100F0FFFC401B0A2807D9CD
:1019D000606A40F40030606284F82060012070BDCD
:1019E0002068406810F0010FEDD02068016821F0F8
:1019F0000201016000F0E8FC05462068406810F034
:101A0000020F11D000F0E0FC401B0A2807D9606AE1
:101A100040F40030606284F82060012070BD2068CE
:101A2000406810F0020FEDD1207E01283FD02068E1
:101A3000016821F080010160607E01283DD02068AE
:101A4000016821F040010160A07E01283BD02068A0
:101A5000016821F020010160E07E012839D0206872
:101A6000016841F010010160207F012837D0206813
:101A7000016821F008010160607F012835D02068ED
:101A8000016821F004010160E168A068626908430F
:101A90002169114308436168491E08432168C861F0
:101AA00000206062012084F82000002070BD2068C2
:101AB000016841F080010160BEE72068016841F0E3
:101AC00040010160C0E72068016841F02001016029
:101AD000C2E72068016821F010010160C4E72068B6
:101AE000016841F008010160C6E72068016841F023
:101AF00004010160C8E700002DE9F04186B004460A
:101B0000142101A8FEF72EFC364B374ADFF8D080AF
:101B100018682168344C03260227401C1032002527
:101B20004FF0090C414527D11860012807D11068F2
:101B300040F000701060106800F0007000902068A5
:101B400040F008002060206800F008000090019636
:101B5000029703950496CDF814C001A9234800F01C
:101B600015FB00220221142000F09EFC142000F03E
:101B70008DFC06B0BDE8F081DFF874804145F8D1F6
:101B8000116841F080611160116801F0806100917D
:101B90001860012807D1106840F0007010601068CC
:101BA00000F000700090206840F002002060206883
:101BB00000F0020000904FF440500190029703950E
:101BC0000496CDF814C001A90A4800F0DFFA0022FB
:101BD0000221412000F068FC412000F057FCC8E7DA
:101BE000006400408401002030380240000C0240B4
:101BF00000680040000402407047000010B50C4A25
:101C00000168914212D10B4C0021231DA4F138022E
:101C1000FFF7EDFCA4F1380000682060A4F1380162
:101C20000A6CC96BBDE8104005F052B810BD000049
:101C300000640040F40100207047000010B50C4A19
:101C40000168914212D10B4C0121231DA4F11C0209
:101C5000FFF7CDFCA4F11C0000682060A4F138015E
:101C60000A6CC96BBDE8104005F0B0B810BD0000AB
:101C700000680040F4010020704770B5044694F8F5
:101C80002000012805D0606A40F400206062012035
:101C900070BD022084F820002068016821F0010155
:101CA000016000F091FB05462068406810F0010FCC
:101CB00012D000F089FB401B0A2808D9606A40F462
:101CC00000306062052084F82000012070BD20688B
:101CD000406810F0010FECD10020606270BD7047C9
:101CE0007047704770477047704770472DE9F04163
:101CF0000446A66D00F068FB054694F83500002701
:101D0000022806D08020606584F834700120BDE888
:101D1000F0812068016821F01601016020684169A6
:101D200021F080014161206C08B9A06C20B12068CD
:101D3000016821F0080101602068016821F00101BB
:101D400001602068006810F0010F12D000F03CFB29
:101D5000401B052808D920206065032084F8350041
:101D600084F83470BDE8F0812068006810F0010F3D
:101D7000ECD194F85C003F2101FA00F0B060012042
:101D800084F8350084F834700020BDE8F08190F8C4
:101D90003510022903D080214165012070470521BB
:101DA00080F835100068016821F001010160002011
:101DB000704700002DE9F84304464FF00008CDF8C5
:101DC000008076484FF416510068B0FBF1F7A56D1E
:101DD0002E6894F85C00082101FA00F0304211D01E
:101DE0002068026812F0040F0CD0026822F004028E
:101DF000026094F85C0001FA00F0A860606D40F0A9
:101E00000100606594F85C004FF0010909FA00F0E8
:101E1000304209D02168496911F0800F04D0A860D0
:101E2000606D40F00200606594F85C10042088400A
:101E3000304209D02168096811F0020F04D0A8606F
:101E4000606D40F00400606594F85C1010208840DC
:101E5000304224D02168096811F0080F1FD0A86013
:101E60002068016811F4802F0DD0006810F4002F55
:101E700004D0A16C99B12046884710E0216C71B163
:101E8000204688470BE0016811F4807F03D1016888
:101E900021F008010160216C09B12046884794F8BF
:101EA0005C1020208840304251D02168096811F030
:101EB000100F4CD0A86094F8350005280DD020688C
:101EC000016811F4802F32D0006810F4002F29D05F
:101ED000E16B59B32046884739E02068016821F05A
:101EE000160101602068416921F080014161206C88
:101EF00008B9A06C20B12068016821F008010160D8
:101F000094F85C003F2101FA00F0A86084F8359055
:101F100084F83480216D00293ED001B02046BDE810
:101F2000F0430847616C09B1204688470FE001681B
:101F300011F4807F07D1016821F01001016084F85D
:101F4000359084F83480E16B09B120468847606D94
:101F5000002821D0606D10F0010F15D0052084F805
:101F600035002068016821F0010101600098401CE3
:101F70000090B84204D82068006810F0010FF5D135
:101F800084F8359084F83480E16C002904D001B0E5
:101F90002046BDE8F0430847BDE8F88388010020EB
:101FA0002DE9F041044600F00FFA0546DCB10220AD
:101FB00084F83500002684F834602068016821F038
:101FC000010101602068006810F0010F13D000F0DB
:101FD000FBF9401B052809D920206065032084F8FF
:101FE0003500BDE8F0810120BDE8F081206800687F
:101FF00010F0010FEBD121680868234A1040A36854
:102000006268D4F810C01A43E36843EA0C031A4329
:1020100063691A43A3691A43E3691A43236A1A439B
:102020001043626A042A03D1236BE26A1A43104305
:1020300008602068406920F00701606A40EA0105F5
:10204000012704280ED1A06A0543E06A50B120465A
:10205000FFF71EF930B14020606584F8357001202B
:10206000BDE8F081206845612046FFF7F7F894F855
:102070005C103F2202FA01F18160666584F83570D8
:102080000020BDE8F08100003F8010F070B50446EC
:10209000002594F8340001280DD0012084F8340084
:1020A00094F835C00020BCF1010F06D084F834004C
:1020B0000225284670BD022070BD4FF0020C84F846
:1020C00035C060652046FFF722F92068016841F0BD
:1020D00001010160EDE770B504460025A66D94F896
:1020E000340001280DD0012084F8340094F835C064
:1020F0000020BCF1010F06D084F8340002252846E8
:1021000070BD022070BD4FF0020C84F835C06065D0
:102110002046FFF7FCF894F85C003F2101FA00F03C
:10212000B0602068016841F016010160206C20B1A8
:102130002068016841F0080101602068016841F0F1
:1021400001010160DBE7000070B5044600F03CF9D6
:102150000546B4F1FF3F02D004480078044400F083
:1021600033F9401BA042FAD370BD00008C0100205F
:102170007047000010B504490A68024202D00860A6
:10218000FFF7F6FF10BD0000143C01402DE9F84FA9
:102190000022DFF80C92DFF80CE2DFF80CA24FF01F
:1021A000010B03274FF00F080BFA02FC0B6803EA40
:1021B0000C0363457AD10C7904F00304012C01D09F
:1021C000022C14D18568540007FA04F6B543CE6892
:1021D00006FA04F42C438460446824EA0C0C0C795D
:1021E000C4F30014944044EA0C0CC0F804C0D1F8C5
:1021F00004C037EA0C0C0CD0C4684FEA420C07FA52
:102200000CF5AC438D6805FA0CFC4CEA040CC0F8E4
:102210000CC091F804C00CF0030CBCF1020F12D1F9
:102220004FEAD20C00EB8C04256A4FEA427C4FEA5D
:10223000DC6C08FA0CF6B5430E6906FA0CFC4CEAA5
:10224000050CC4F820C004684FEA420C07FA0CF5EC
:10225000AC430D7905F0030505FA0CFC4CEA040CBF
:10226000C0F800C0D1F804C01CF4403F77D0D9F8C2
:1022700000C04CF4804CC9F800C0D9F800C00CF480
:10228000804CCDF800C022F0030C0CF1804505F520
:102290009835D5F808C89407240F08FA04F62CEAF4
:1022A0000606704503D14FF0000C1FE057E0A0F187
:1022B000804CBCF5013C58D0BCF5806C58D0BCF5C6
:1022C000806C58D0BCF5806C58D0BCF5806C58D070
:1022D000BCF5806C58D0BCF5806C58D0BCF5806CD7
:1022E00058D0BCF5806C58D04FF00A0C0CFA04FCA6
:1022F0004CEA060CC5F808C8DAF800C02CEA030C52
:102300004C6814F4801F01D04CEA030CCAF800C0DA
:10231000264CD4F800C02CEA030C4D6815F4001FBD
:1023200001D04CEA030CC4F800C0214CD4F800C022
:102330002CEA030C4D6815F4003F01D04CEA030C65
:10234000C4F800C01B4CD4F800C02CEA030C4D6844
:1023500015F4803F01D04CEA030CC4F800C0521CB5
:10236000102AFFF421AFBDE8F88F4FF0010CBDE754
:102370004FF0020CBAE74FF0030CB7E74FF0040C34
:10238000B4E74FF0050CB1E74FF0060CAEE74FF0A5
:10239000070CABE74FF0080CA8E74FF0090CA5E7D6
:1023A0004438024000000240083C01400C3C01401F
:1023B000043C0140003C0140002A01D0816170478B
:1023C000090481617047000001488068704700007F
:1023D0008C01002002480168491C01607047000020
:1023E0009401002010B50B48016841F400710160B0
:1023F000016841F480610160016841F4807101600D
:10240000032000F085F8002000F006F800F026F820
:10241000002010BD003C024070B504460D4D4FF445
:102420007A712878B1FBF0F00B490968B1FBF0F044
:1024300000F06EFD08B1012070BD102C07D2002203
:102440002146501E00F030F86C60002070BD012065
:1024500070BD00008C0100208801002008B50A48EA
:10246000016841F480410160006800F48040009000
:102470000548001F016841F080510160006800F0CC
:102480008050009008BD00004438024000280ADB5C
:1024900000F01F01012202FA01F14009800000F161
:1024A000E020C0F80011704710B4184B1B68C3F34C
:1024B0000223C3F1070CBCF1040F01D94FF0040C47
:1024C0001C1D072C01D2002300E0DB1E012404FAAE
:1024D0000CFCACF1010C0CEA0101994004FA03F385
:1024E0005B1E1A401143002806DB00F1E0200901C1
:1024F00080F8001410BC704700F00F0000F1E020DD
:10250000090180F8141D10BC704700000CED00E0BC
:1025100000F00700064A11684FF6FF03194041EA30
:10252000002040F0FD7040F08060106070470000B7
:102530000CED00E02DE9F04704460D46002C13D0C9
:10254000DFF85491D9F80000EFB200F00F00A84274
:102550000DD289F80070D9F8000000F00F00A842F1
:1025600005D00120BDE8F0870120BDE8F087206894
:102570004A4E10F0020F14D010F0040F03D0306850
:1025800040F4E0503060207810F0080F03D030683D
:1025900040F4604030603068A16820F0F0000843EB
:1025A0003060207810F0010F3ED060683C4901286F
:1025B00008D002280DD003280BD0096811F0020FB3
:1025C00028D00AE0096811F4003F06D10120BDE8D7
:1025D000F087096811F0007F19D0316821F00301FC
:1025E00008433060FFF7F0FE80463068616800F015
:1025F0000C00B0EB810F17D041F2883AFFF7E4FEF0
:10260000A0EB0800504508D90320BDE8F087012061
:10261000BDE8F0870120BDE8F0873068616800F010
:102620000C00B0EB810FE9D1D9F8000000F00F00E9
:10263000A8420AD989F80070D9F8000000F00F000C
:10264000A84202D00120BDE8F087207810F0040FE6
:1026500005D03068E16820F4E0500843306020780D
:1026600010F0080F06D03068216920F4604040EA7D
:10267000C100306000F042F831680A4AC1F303112A
:10268000515CC8400849086008480068FFF7C4FE6C
:102690000020BDE8F0870000003C024008380240FE
:1026A0000038024080C2000888010020900100200C
:1026B00001480068704700008801002000B5FFF75E
:1026C000F7FF04490968044AC1F38221515CC840FC
:1026D00000BD00000838024090C2000800B5FFF7B6
:1026E000E7FF04490968044AC1F34231515CC8401C
:1026F00000BD00000838024090C2000810B517481D
:10270000006810F00C01164816D0164B042912D0A0
:10271000082911D1144C216801F03F02216811F4FD
:10272000800F0AD02068C0F38810A0FB03010023AB
:10273000FDF7CEFD09E0184610BD21680023C1F366
:102740008811A1FB0001FDF7C3FD2168C1F3014120
:10275000491C4900B0FBF1F010BD000008380240F0
:102760000024F400001BB700043802402DE9F84FA4
:102770000446002C12D02078FB4E10F0010FA6F179
:10278000040563D0301D016801F00C0104290CD050
:10279000006800F00C00082803D010E00120BDE81C
:1027A000F88F306810F4800F09D0286810F4003FCB
:1027B0004CD06068002849D10120BDE8F88F6068DE
:1027C000B0F5803F14D0B0F5A02F16D0286820F4C3
:1027D00080302860286820F480202860606810B36A
:1027E000FFF7F2FD0746286810F4003F0ED02DE0F9
:1027F000286840F480302860F0E7286840F48020A2
:102800002860286840F480302860E7E7FFF7DCFDA7
:10281000C01B642802D90320BDE8F88F286810F493
:10282000003FF3D012E0FFF7CFFD0746286810F411
:10283000003F0BD0FFF7C8FDC01B642802D903205E
:10284000BDE8F88F286810F4003FF3D12078C74F17
:1028500010F0020F4FF0000957D0C548016811F081
:102860000C0F14D0006800F00C00082803D1306869
:1028700010F4800F0BD0E06880B301203860FFF7C0
:10288000A3FD8046286810F0020F12D01EE02868D1
:1028900010F0020F05D0E068012802D00120BDE849
:1028A000F88F2868216920F0F80040EAC10028600C
:1028B0002BE0FFF789FDA0EB0800022802D90320D6
:1028C000BDE8F88F286810F0020FF2D0286821695F
:1028D00020F0F80040EAC100286016E0FFE7C7F8E2
:1028E0000090FFF771FD8046286810F0020F0CD0B1
:1028F000FFF76AFDA0EB0800022802D90320BDE81B
:10290000F88F286810F0020FF2D1207810F0080F2D
:1029100035D09848DFF860A26169C1B1012101603A
:10292000FFF752FD8046DAF8000010F0020F26D1C2
:10293000FFF74AFDA0EB0800022802D90320BDE8FA
:10294000F88FDAF8000010F0020FF1D017E0C0F8AD
:102950000090FFF739FD8046DAF8000010F0020F12
:102960000DD0FFF731FDA0EB0800022802D90320AB
:10297000BDE8F88FDAF8000010F0020FF1D12078EE
:1029800010F0040F71D04FF000087C48006810F080
:10299000805F0AD17948016841F080510160006888
:1029A00000F0805000904FF00108DFF8D4B1DBF860
:1029B000000010F4807F1BD1DBF8000040F4807031
:1029C000CBF80000FFF700FD8246DBF8000010F4B2
:1029D000807F0DD1FFF7F8FCA0EB0A00022802D996
:1029E0000320BDE8F88FDBF8000010F4807FF1D001
:1029F000A068DFF890B1012818D005281DD0DBF8B9
:102A0000000020F00100CBF80000DBF8000020F00F
:102A10000400CBF80000A06840B3FFF7D5FC824665
:102A2000DBF8000010F0020F14D03EE0DBF80000ED
:102A300040F00100CBF80000EDE7DBF8000040F0CB
:102A40000400CBF80000DBF8000040F00100CBF8F8
:102A50000000E0E7FFF7B8FCA0EB0A0141F2883084
:102A6000814204D90320BDE8F88F26E005E0DBF8B9
:102A7000000010F0020FEDD017E0FFF7A5FC824632
:102A8000DBF8000010F0020F0FD0FFF79DFCA0EB69
:102A90000A0141F28830814202D90320BDE8F88F53
:102AA000DBF8000010F0020FEFD1B8F1010F04D1F4
:102AB0003248016821F080510160A069F0B32C49CF
:102AC00009684FF0FF3801F00C01082966D0022890
:102AD00010D0C7F86090FFF777FC0446286810F024
:102AE000007F2BD0FFF770FC001B022851D9032078
:102AF000BDE8F88FC7F86090FFF766FC814628684C
:102B000010F0007F0CD0FFF75FFCA0EB090002285B
:102B100002D90320BDE8F88F286810F0007FF2D1B9
:102B2000216AE069A26A0843616A08EB52028901DE
:102B300041EA0241084394F82C1000E055E040EAD5
:102B40000160306001203866FFF73EFC04462868CB
:102B500010F0007F49D1FFF737FC001B022813D982
:102B60000320BDE8F88F000004380240000047420F
:102B700008380240800E4742743802404038024014
:102B80000070004070380240286810F0007FE2D0EA
:102B90002BE0286810F0007FA4D126E0012822D085
:102BA0003068E26900F4800191421AD1226A00F093
:102BB0003F01914215D147F6C071626A0140B1EB05
:102BC000821F0ED1A26A00F4403108EB5202B1EB31
:102BD000024F06D194F82C1000F07060B0EB016F3A
:102BE00003D00120BDE70120BBE70020B9E770B5A5
:102BF0000446002C09D0606A002540B1256165615A
:102C0000A56294F8510040B10CE0012070BD6068ED
:102C1000B0F5827FF4D0E561F2E784F850502046A9
:102C200000F044F8022084F851002068016821F087
:102C300040010160A088218900F4827001F4044100
:102C40000843A18901F400610843217C01F00201DD
:102C50000843217D01F001010843218B01F400713B
:102C60000843217F01F03801084394F8201001F057
:102C700080010843218D01F4005108432168086058
:102C8000A169042000EA114094F8241001F0100119
:102C90000143206841602068C16921F40061C1617D
:102CA0006565012084F85100002070BD10B586B024
:102CB0000446142101A8FDF755FB144920688842F9
:102CC00021D100211248026842F48012026000689B
:102CD00000F4801000900E481438026842F0200280
:102CE0000260006800F0200000904FF460700190D6
:102CF000022002900391032004900520059001A971
:102D00000448FFF743FA06B010BD00000050014030
:102D100044380240001402402DE9F84F04460A9E50
:102D20008A4693461F4601254FF0000894F850004C
:102D300001280ED0012084F85000FFF745FB8146A2
:102D400094F85100616801280ED0B1F5827F07D157
:102D500002E00220BDE8F88FA16809B9042803D079
:102D60004FF0020800F0CBB8BAF1000F1DD0BBF154
:102D7000000F1AD0380018D094F85100042802D05F
:102D8000052084F8510000206065C4F838B0E7875A
:102D9000A787C4F830A0E786A7862064606420680F
:102DA000016811F0400F03D006E04FF00108A6E0E3
:102DB000016841F040010160E068B0F5006F05D0A6
:102DC0006068002848D0012F46D07EE0606808B1D6
:102DD000012F3AD1206B21680088C860206B801CCD
:102DE0002063E08E401EE0862FE02068816811F0AD
:102DF000020F0DD0E18E59B1012D09D1216B098847
:102E0000C160206B801C2063E08E401EE0860025A0
:102E10002068816811F0010F0BD0E18F49B1C068C3
:102E2000A16B0880A06B801CA063E08F401EE08730
:102E30000125FFF7C9FAA0EB0900B04205D3B6F1AE
:102E4000FF3F02D04FF0030859E0E08E0028CCD1BC
:102E5000E08F0028C9D13EE0206B2168007808731C
:102E6000206B401C2063E08E401EE0862DE0206831
:102E7000816811F0020F0DD0E18E59B1012D09D1F9
:102E8000216B09780173206B401C2063E08E401E8B
:102E9000E08600252068816811F0010F0BD0E18FDA
:102EA00049B1C068A16B0870A06B401CA063E08FA3
:102EB000401EE0870125FFF787FAA0EB0900B0422A
:102EC00002D3B6F1FF3F11D186B1E08E0028CED1FA
:102ED000E08F0028CBD14A463146204601F0E8FC7D
:102EE00038B14FF001082020606508E04FF003087A
:102EF00005E0A06818B92068C168806800900120CA
:102F000084F85100002084F850004046BDE8F88F56
:102F1000401EB0F1807F01D3012070474FF0E021C7
:102F20004861044AF0201070002088610720086181
:102F30000020704723ED00E07047704790F83C2078
:102F4000012A2CD0012280F83C20CA680023D1F845
:102F500008C022F4407242EA0C02D1F804C022F404
:102F6000806242EA0C02D1F800C022F4006242EA18
:102F70000C02D1F810C022F4805242EA0C02D1F8BF
:102F800014C022F4005242EA0C02C96922F48042C1
:102F900011430268516480F83C30002070470220E1
:102FA000704730B490F83C20012A38D0012480F8D2
:102FB0003C40022280F83D200268D2F804C09368A9
:102FC0002CF0700C0D6845EA0C0CC2F804C00268C5
:102FD000A2F1804CBCF5803C14D0B2F1804F11D0EE
:102FE0001CF57C4C0ED0BCF5806C0BD0BCF5806C15
:102FF00008D0BCF5784C05D0BCF5705C02D01CF54F
:10300000943C04D123F0800349681943916080F80F
:103010003D40002180F83C1030BC0020704730BC9F
:103020000220704710B50446002C03D094F83D00F0
:1030300010B107E0012010BD002084F83C002046BC
:1030400000F01EF8022084F83D00211D206801F0E8
:103050003FFD012084F8460084F83E0084F83F00DC
:1030600084F8400084F8410084F8420084F843006A
:1030700084F8440084F8450084F83D00002010BD29
:1030800008B500682649884209D12648016841F000
:1030900001010160006800F00100009008BD2149B5
:1030A000214A091F904211D1086840F004000860CD
:1030B000086800F004000090002211461E20FFF76F
:1030C000F3F9BDE808401E20FFF7E0B9174A904227
:1030D00011D1086840F008000860086800F0080096
:1030E0000090002211463220FFF7DEF9BDE80840CB
:1030F0003220FFF7CBB90E4A9042CFD1086840F09A
:1031000010000860086800F0100000900022032101
:103110003620FFF7C9F9BDE808403620FFF7B6B9F9
:10312000000001404438024000080040000C00400C
:103130000010004090F83D10012901D00120704797
:10314000022180F83D100068A0F18041B1F5803186
:103150001AD0B0F1804F17D011F57C4114D0B1F5E1
:10316000806111D0B1F580610ED0B1F578410BD0FE
:10317000B1F5705108D011F5943105D0016841F0D6
:103180000101016000207047816801F007010629F4
:10319000F8D0016841F001010160F3E790F83D10BB
:1031A000012901D001207047022180F83D100168FB
:1031B000CA6842F00102CA600068A0F18041B1F51E
:1031C00080311AD0B0F1804F17D011F57C4114D066
:1031D000B1F5806111D0B1F580610ED0B1F57841C3
:1031E0000BD0B1F5705108D011F5943105D00168BC
:1031F00041F00101016000207047816801F0070182
:103200000629F8D0016841F001010160F3E770B5CB
:103210000446002594F83C00012818D0012684F8C3
:103220003C60022084F83D002068826822F077022A
:1032300022F47F4282600868502839D00EDC2028B2
:1032400054D006DC002851D0102811D14EE00220C5
:1032500070BD30284AD040280AD13DE0602831D0E6
:1032600070280DD0B0F5805F03D0B0F5005F13D0AB
:10327000012584F83D60002084F83C00284670BD9C
:10328000CB684A688968206801F08DFC20688168F5
:1032900041F077018160ECE7CB684A688968206873
:1032A00001F081FC2068816841F480418160E0E7A1
:1032B000CA684968206801F063FD5021206801F068
:1032C0007DFCD6E7CA684968206801F06CFD602182
:1032D000206801F073FCCCE7CA684968206801F0F7
:1032E0004FFD4021206801F069FCC2E722680146D9
:1032F000104601F063FCBCE7704770B504462068D7
:1033000001694FF0000511F0020F17D0C16811F0EC
:10331000020F13D0E91E0161012020772068806927
:1033200010F0030F03D02046FFF7E6FF05E020462C
:1033300000F040F9204600F0EDF92577206801699A
:1033400011F0040F18D0C16811F0040F14D06FF001
:1033500004010161022020772068806910F4407F19
:1033600003D02046FFF7C8FF05E0204600F022F911
:10337000204600F0CFF925772068016911F0080F89
:1033800018D0C16811F0080F14D06FF00801016166
:10339000042020772068C06910F0030F03D0204676
:1033A000FFF7AAFF05E0204600F004F9204600F0F0
:1033B000B1F925772068016911F0100F18D0C168A4
:1033C00011F0100F14D06FF0100101610820207768
:1033D0002068C06910F4407F03D02046FFF78CFFBF
:1033E00005E0204600F0E6F8204600F093F9257746
:1033F0002068016911F0010F09D0C16811F0010FB7
:1034000005D06FF001010161204600F0EBF9206862
:10341000016911F0800F09D0C16811F0800F05D04B
:103420006FF0800101612046FFF786FD2068016989
:1034300011F0400F09D0C16811F0400F05D06FF0B6
:1034400040010161204600F0CEF92068016911F0C9
:10345000200F0BD0C16811F0200F07D06FF02001B2
:1034600001612046BDE87040FFF767BD70BD0000F8
:1034700070B586B00446142101A8FCF773FF424AD8
:1034800020680024414902250126904227D108687E
:1034900040F001000860086800F001000090086832
:1034A00040F010000860086800F0100000904FF431
:1034B00040700190029503940494059601A9344844
:1034C000FEF764FE4FF4C04001900295039404940B
:1034D000059601A92F48FEF759FE06B070BD2E4A89
:1034E000904212D1086840F002000860086800F0BD
:1034F0000200009020200190029503940494059509
:1035000001A92648FEF742FEE7E7254A904213D17B
:10351000086840F008000860086800F008000090A3
:103520004FF470400190029503940494059501A90D
:103530001C48FEF72BFED0E71B4A9042CDD108680D
:1035400040F480700860086800F48070009008689B
:1035500040F080000860086800F08000009001964C
:10356000029503940494059501A91048FEF70EFEF8
:103570004FF4E0500190029503940494059501A93D
:103580000B48FEF703FEA8E7000001403038024078
:10359000000002400010024000040040000402400D
:1035A00000080040000C0240000C004000200240D7
:1035B000001C0240704770B504460D46002694F882
:1035C0003C0001280FD0012084F83C006AB1042A95
:1035D0001FD0082A32D00C2A44D00126002084F8BB
:1035E0003C00304670BD022070BD2946206801F0C5
:1035F000EDFA2068816941F00801816120688169E4
:1036000021F004018161206881692A691143816187
:10361000E4E72946206801F011FB2068816941F444
:10362000006181612068816921F480618161206885
:1036300081692A6941EA02218161CFE72946206830
:1036400001F038FB2068C16941F00801C1612068C0
:10365000C16921F00401C1612068C1692A6911436F
:10366000C161BBE72946206801F060FB2068C169A1
:1036700041F40061C1612068C16921F48061C161C8
:103680002068C1692A6941EA0221C161A6E710B533
:103690000446002C03D094F83D0010B107E001204F
:1036A00010BD002084F83C00204600F01FF80220E6
:1036B00084F83D00211D206801F00AFA012084F8F9
:1036C000460084F83E0084F83F0084F8400084F807
:1036D000410084F8420084F8430084F8440084F8F0
:1036E000450084F83D00002010BD000008B50068CA
:1036F0000649884208D10648016841F0020101608C
:10370000006800F00200009008BD000000040040C6
:10371000403802407047000010B50446002909D027
:1037200004290AD008290BD094F8410001280AD0B6
:10373000012010BD94F83E00F8E794F83F00F5E74B
:1037400094F84000F2E7022099B304293FD00829F9
:1037500040D084F841000122206801F015FA1F4A88
:1037600020681F49904201D0884203D1436C43F442
:1037700000434364206890421CD0B0F1804F19D0C0
:10378000A0F18042B2F5806214D0B2F5806211D00F
:10379000B2F580620ED088420CD0B2F59A3109D0D1
:1037A00011F5943106D0016841F00101016000205B
:1037B00010BD09E0816801F007010629F7D0016812
:1037C00041F001010160F2E784F83E00C3E784F8AC
:1037D0003F00C0E784F84000BDE700000000014062
:1037E000000401407047704770477047F8B50446C1
:1037F00022681068D168536900F00F0CBCF1000F0B
:103800000AD110F0200F07D011F0200F04D020466D
:10381000BDE8F84001F088BB0025BCF1000F74D072
:1038200003F0010C01F490765CEA06066DD010F00E
:10383000010F06D011F4807F03D0226C42F0010208
:10384000226410F0040F06D013F0010F03D0226C95
:1038500042F00202226410F0020F06D013F0010FB2
:1038600003D0226C42F00402226410F0080F08D04A
:1038700001F0200252EA0C0203D0226C42F008024E
:103880002264226C002A35D010F0200F05D011F0F0
:10389000200F02D0204601F047FB20684069C0F3AA
:1038A0008010216C01F00801084329D0204601F066
:1038B000F9FA2068406910F0400F1CD020681430DD
:1038C00050E8001F21F0400140E80012002AF5D125
:1038D000A06B60B15C490165A06BFEF758FA002847
:1038E00008D0A06B016D01B0BDE8F040084720464C
:1038F000FFF77BFFF8BD2046FFF777FFF8BD04E038
:103900002046FFF772FF2564F8BD236B012B7DD1A4
:1039100010F0100F7AD011F0100F7ED010685068A0
:10392000009050694FF0200310F0400F43D0A16B7E
:103930000868406880B20028E6D0A28D8242E3D9B0
:10394000E085C869B0F5807F2DD020680C3050E844
:10395000001F21F4807140E80012002AF5D1206890
:10396000143050E8001F21F0010140E80012002A45
:10397000F5D12068143050E8001F21F0400140E8E4
:103980000012002AF5D184F83E30256320680C30FF
:1039900050E8001F21F0100140E80012002AF5D184
:1039A000A06BFEF7A3F9A08DE18D401A81B22046ED
:1039B000FFF71AFFF8BDA08DE18D401A81B2E08DAE
:1039C0000028F7D00029F5D020680C3050E8002FEF
:1039D00022F4907240E8002CBCF1000FF4D1206872
:1039E000143050E8002F22F0010240E8002CBCF116
:1039F000000FF4D184F83E30256320680C3050E885
:103A0000002F22F0100240E8002300E005E0002B28
:103A1000F3D12046FFF7E8FEF8BD10F0800F07D085
:103A200011F0800F04D02046BDE8F84001F05CBBE7
:103A300010F0400FF0D011F0400FEDD02046BDE85F
:103A4000F84001F056BA0000FD4D000870B504467C
:103A5000002C04D094F83D00002510B106E00120B0
:103A600070BD84F83C50204600F022F8242084F8F1
:103A70003D002068C16821F40051C160204601F07A
:103A8000B7FA2068016921F4904101612068416919
:103A900021F02A0141612068C16841F40051C160F0
:103AA0002564202084F83D0084F83E00002070BD8D
:103AB0002DE9F04F87B00446142102A8FCF752FC10
:103AC000EF4ADFF8B8930821D4F800C0EC4B103A65
:103AD000022603200025CF014FF480784FF0206AA2
:103AE000CC453CD1D3F800C04CF0804CC3F800C0AA
:103AF0001B6803F080430193136843F010031360C5
:103B0000126802F010020192C2010292039604951B
:103B10000590069102A9DB48FEF738FBDB4EDA4838
:103B20003060C6F804A0B560F56037617561B561B5
:103B3000C6F81C80356275623046FEF731FA08B16E
:103B4000FDF705FCA663B463002211465220FEF780
:103B5000ABFC5220FEF79AFC07B0BDE8F08FDFF80F
:103B600030E34FF0010B4FF04009F44561D1D3F839
:103B700000C04CF0004CC3F800C01B6803F00043C9
:103B80000193136843F010031360126802F01002EF
:103B90000192029603960495032005900820069052
:103BA00002A9B848FEF7F2FACDF808B003960496D9
:103BB000032005900820069002A9B248FEF7E6FA15
:103BC000B148B24E483060363060C6F804A0B560E7
:103BD000F56037617561B561C6F81C803562756244
:103BE0003046FEF7DDF908B1FDF7B1FBA663B4631B
:103BF000A548A64E4838C0363060C6F804A0C6F8BE
:103C00000890F56037617561B561F561356275627F
:103C10003046FEF7C5F908B1FDF799FB6663B4635A
:103C2000002201215320FEF73FFC5320FEF72EFC1B
:103C300092E7DFF860E2F4454CD19149091D0B6829
:103C400043F010030B60096801F010010191116845
:103C500041F002011160116801F00201019180211F
:103C600002910396CDF810B0834605904FF0070AF5
:103C7000CDF818A002A98848FEF788FACDF8089078
:103C800003960495CDF814B0CDF818A002A9824887
:103C9000FEF77CFA824E814830604FF00060706021
:103CA000B560F56037617561B561C6F81C80356235
:103CB00075623046FEF774F908B1FDF748FBA6635C
:103CC000B463002211462520FEF7EEFB2520FEF707
:103CD000DDFB41E7DFF8CCE1F44564D1196841F43C
:103CE00080211960196801F480210191116841F067
:103CF00008011160116801F0080101914FF4007191
:103D0000029103960496824605904FF0070BCDF87A
:103D100018B002A96448FEF739FACDF80880039676
:103D20000495CDF814A0CDF818B002A95E48FEF7AE
:103D30002DFA55485A4E3038603630604FF00060EA
:103D40007060B560F56037617561B561C6F81C805B
:103D5000356275623046FEF723F908B1FDF7F7FAD0
:103D6000A663B46348484E4E1830C03630604005F4
:103D70007060C6F80890F56037617561B561F561EE
:103D8000356275623046FEF70BF908B1FDF7DFFAD0
:103D90006663B463002201212720FEF785FB2720FC
:103DA000FEF774FBD8E6414B9C4592D1344B1B1D6A
:103DB000D3F800C04CF0200CC3F800C01B6803F01F
:103DC00020030193136843F040031360126802F06C
:103DD000400201924FF4804202920396CDF810B057
:103DE000032005908B46069102A93148FEF7CEF9D3
:103DF0004FF4007002900396049603200590CDF8CE
:103E000018B002A92A48FEF7C1F92448294E1838EB
:103E10003060C6F804A0B560F56037617561B561C2
:103E2000C6F81C80356275623046FEF7B9F808B1F5
:103E3000FDF78DFAA663B46318481E4E60306036F5
:103E40003060C6F804A0C6F80890F5603761756167
:103E5000B561F561356275623046FEF7A1F808B1CB
:103E6000FDF775FA6663B463002201214720FEF76F
:103E70001BFB4720FEF70AFB6EE6000000780040BF
:103E8000403802400010024058600240E00F00201D
:103E9000007C0040001001400004024040640240E9
:103EA0000011002000480040000C024000140140B6
:103EB00000180240201200207047000037B5044669
:103EC00094F83D00202802D003B0022030BD0199B3
:103ED000002937D0002A35D094F83C00012834D08E
:103EE000012084F83C002162A284E284002525643C
:103EF000212084F83D00636B1548D863636B154837
:103F00001864636B1448D864606B056520681346B9
:103F1000001DD4F834C002466046FEF7DCF8216884
:103F20006FF04000086084F83C502068143050E87E
:103F3000001F41F0800140E80012002AF5D103B0D3
:103F4000002030BD03B0012030BD03B0022030BDE1
:103F5000574E00089B4E00080D4E000870477047F2
:103F6000FEE7000010B50F480D49016003214160D4
:103F700000218160C1604FF4002202614FF44012C1
:103F80004261017641768176C17601774177FDF70E
:103F9000FEFC002803D0BDE81040FDF7D8B910BDE5
:103FA000006400407C0C002010B50F480D490160F2
:103FB0000321416000218160C1604FF40022026151
:103FC0004FF440124261017641768176C1760177E5
:103FD0004177FDF7DCFC002803D0BDE81040FDF779
:103FE000B6B910BD00680040A40C002008B52948EF
:103FF000016841F480010160016801F480010091D1
:10400000016841F400110160006800F400100090A4
:10401000002211460B20FEF747FA0B20FEF736FA76
:10402000002211460C20FEF73FFA0C20FEF72EFA74
:10403000002211460E20FEF737FA0E20FEF726FA70
:10404000002211460F20FEF72FFA0F20FEF71EFA6E
:10405000002211461120FEF727FA1120FEF716FA6A
:10406000002211463920FEF71FFA3920FEF70EFA1A
:10407000002211463A20FEF717FA3A20FEF706FA18
:10408000002211464520FEF70FFABDE80840452002
:10409000FEF7FCB9303802402DE9F04F87B014210B
:1040A00002A8FCF75FF900244F48016841F01001B5
:1040B0000160016801F010010191016841F0020105
:1040C0000160016801F002010191016841F04001C5
:1040D0000160016801F040010191016841F00101B6
:1040E0000160016801F001010191016841F00801DE
:1040F0000160016801F008010191016841F48071DB
:104100000160016801F480710191016841F0800152
:104110000160016801F080010191016841F0200116
:104120000160006800F020000190DFF8C0800122EB
:1041300051034046FEF740F9DFF8B49001223C21DC
:104140004846FEF739F900224FF4FF714046FEF76A
:1041500033F9DFF8A0A044F2404600223146504631
:10416000FEF72AF9DFF890B04FF4006700223946D5
:104170005846FEF721F942F2FE1002900125039500
:104180000494059402A94046FEF700F83C200290F2
:1041900003950494059402A94846FDF7F7FF02969B
:1041A00003950494059402A95046FDF7EFFF0420FF
:1041B00002904FF404100390049402A90F48FDF7F5
:1041C000E5FF029703950494059402A95846FDF76C
:1041D000DDFF002211460820FEF766F90820FEF7F1
:1041E00055F907B0BDE8F08F3038024000180240A2
:1041F000001C024000140240001002400004024073
:1042000010B510480E4901604FF4827141600021E1
:104210008160C160016141614FF4007282613022AE
:10422000C2610162416281620A21C162FEF7DFFC64
:10423000002803D0BDE81040FDF789B810BD00008C
:1042400000500140CC0C002010B596B00024129410
:10425000139414941594109411941C2109A8FCF73C
:1042600081F8202101A8FCF77DF83448324901602B
:10427000A7214160846040F2CF71C1600461446154
:104280008461FEF7CFFE08B1FDF761F84FF480506E
:10429000129012A92948FEF7BAFF08B1FDF757F8A6
:1042A0002648FFF7F4F908B1FDF751F8109411947E
:1042B00010A92248FEF775FE08B1FDF748F8602006
:1042C00009900A940B940C940D940E940F94002270
:1042D00009A91A48FFF76FF908B1FDF738F8042269
:1042E00009A91648FFF767F908B1FDF730F8082269
:1042F00009A91248FFF75FF908B1FDF728F80C2269
:1043000009A90E48FFF757F908B1FDF720F8019405
:1043100002940394049405944FF40050069008947A
:1043200001A90648FEF70AFE08B1FDF710F8034898
:10433000FFF79EF816B010BD00000140240D0020CC
:1043400010B58AB00024089409941C2101A8FCF738
:1043500009F816481449016053214160846040F215
:10436000CF71C16004618461FFF791F908B1FCF776
:10437000EEFF0894099408A90C48FEF712FE08B154
:10438000FCF7E5FF60200190029403940594042259
:1043900001A90648FFF70FF908B1FCF7D8FF034859
:1043A000FFF766F80AB010BD000400406C0D002055
:1043B00010B58EB000240A940B940C940D940894BC
:1043C00009941C2101A8FBF7CDFF2B482949016066
:1043D00053214160846044F61F61C1600461802103
:1043E0008161FEF71FFE08B1FCF7B1FF4FF480506A
:1043F0000A900AA92048FEF70AFF08B1FCF7A7FFB8
:104400001D48FFF744F908B1FCF7A1FF089409948F
:1044100008A91948FEF7C5FD08B1FCF798FF602010
:104420000190029403940594002201A91248FFF719
:10443000C2F808B1FCF78BFF042201A90E48FFF770
:10444000BAF808B1FCF783FF082201A90A48FFF770
:10445000B2F808B1FCF77BFF0C2201A90648FFF770
:10446000AAF808B1FCF773FF0348FFF701F80EB094
:1044700010BD000000080040B40D002010B58EB043
:1044800000240A940B940C940D94089409941C2114
:1044900001A8FBF767FF2B482949016053214160C0
:1044A000846044F61F61C160046180218161FEF770
:1044B000B9FD08B1FCF74BFF4FF480500A900AA9F0
:1044C0002048FEF7A4FE08B1FCF741FF1D48FFF7A6
:1044D000DEF808B1FCF73BFF0894099408A91948D5
:1044E000FEF75FFD08B1FCF732FF602001900294F7
:1044F00003940594002201A91248FFF75CF808B163
:10450000FCF725FF042201A90E48FFF754F808B173
:10451000FCF71DFF082201A90A48FFF74CF808B173
:10452000FCF715FF0C2201A90648FFF744F808B173
:10453000FCF70DFF0348FEF79BFF0EB010BD000017
:10454000000C0040FC0D00201CB5002400940194D8
:104550000D480C4901605321416084604FF4FA61B9
:10456000C1608461FEF75EFD08B1FCF7F0FE0094C7
:10457000019469460448FEF714FD002801D0FCF7B9
:10458000E6FE1CBD00100040440E002010B50C4893
:104590000A4901604FF46121416000218160C160DE
:1045A00001610C2242618161C161FFF74FFA00286D
:1045B00003D0BDE81040FCF7CABE10BD0078004033
:1045C0008C0E002010B50C480A4901604FF4E1310F
:1045D000416000218160C16001610C224261816102
:1045E000C161FFF733FA002803D0BDE81040FCF7A3
:1045F000AEBE10BD007C0040D00E002010B50D48AE
:104600000B4901600C49416000218160C1604FF499
:1046100080620261042242618161C161FFF716FA82
:10462000002803D0BDE81040FCF791BE10BD00008B
:1046300000100140140F0020A086010010B50C48A6
:104640000A4901604FF4E131416000218160C1609D
:1046500001610C2242618161C161FFF7F7F9002815
:1046600003D0BDE81040FCF772BE10BD004800400A
:10467000580F002010B50C480A4901604FF4E13191
:10468000416000218160C16001610C224261816151
:10469000C161FFF7DBF9002803D0BDE81040FCF74B
:1046A00056BE10BD001401409C0F0020FEE770476D
:1046B00090ED010AB5EEC00AF1EE10FA06D0D0ED89
:1046C000040A80EE801A80ED031A70479FED020AFB
:1046D00080ED030A704700000000000080ED050A2D
:1046E000C0ED040A80ED001AC0ED011A80ED022A27
:1046F000FFF7DEBF704770B504460D4640F67811EF
:104700002046FBF72FFE4FF4806204F11C01201DB0
:1047100004F028FD256070BD30B4046800F2A56285
:1047200000F2A541204630BC4FF4007307F082B878
:1047300018B4026811680B68DB064CD50B68496831
:104740000091916B09680A68244B12034FF40074BE
:1047500020D40A6822F001020A600168896B0968A6
:104760004A68C2F5007292B21A804C600168896B87
:1047700009680B6843F400230B600168896B0968C2
:104780000B6843F001030B6000F2A54118BC001D4B
:1047900004F0F3BC0A6822F001020A600168896B28
:1047A00009684A68C2F5007292B21A804C600168CA
:1047B000896B09680B6823F400230B600168896B1F
:1047C00009680B6843F001030B6000F2A56118BC97
:1047D000001D04F0D2BC18BC704700009A010020F4
:1047E00010B503881A0ADBB2032A0CD80C2B0AD89E
:1047F00002EB820404EBC20201EB820202EB8302B1
:10480000C2F8A808816110BD70B50446049E154623
:104810000A0AC8B2032A0DD80C280BD8002D09D0DB
:10482000002B07D02180636004F1080000F003F83A
:104830002561666170BD002101604160704710B55F
:104840000446FDF7C1FD20606068401C606010BD3B
:10485000F0EE401A30EEC10AF6EE000A61EEA00A50
:10486000B4EEE00AF1EE10FA02DD30EE610A7047B4
:10487000F1EE600AB4EEE00AF1EE10FAF7D230EE93
:10488000210A7047B0EE401AB0EE600A01E030EE47
:10489000410AB4EEC10AF1EE10FAF8DA01E030EEA6
:1048A000010AB5EEC00AF1EE10FAF8D37047000025
:1048B00010B582B004461548DFF854C00068B0FB5C
:1048C000FCF04FF47A7C00FB0CF001906068B0F5CE
:1048D000827F0ED10B46009200228021204600F0FC
:1048E00019F880B1606D40F02000606502B00320CF
:1048F00010BD019838B10198401E01902068806871
:1049000010F0800FF5D102B0002010BD880100200A
:1049100000366E012DE9F84304460F46904699464D
:10492000089DFDF751FD401BA9EB0005FDF74CFD6F
:1049300006462D480068C0F3CB30684300902068DD
:10494000806837EA00000ED00020404546D0B9F11B
:10495000FF3F3BD0FDF738FD801BA84205D225B1B3
:10496000009870B32FE00120EFE72068416821F044
:10497000E00141606068B0F5827F0BD1A068B0F5BE
:10498000004F02D0B0F5806F04D12068016821F09B
:1049900040010160A06AB0F5005F09D1206801689C
:1049A00021F4005101602068016841F40051016068
:1049B000012084F85100002084F850000320BDE855
:1049C000F883FFE700250098401E0090206880686B
:1049D00037EA000005D000204045B8D10020BDE8EE
:1049E000F8830120F8E70000880100207047FDF7F8
:1049F000F1BC000030B593B0302107A8FBF7B2FC42
:104A0000142102A8FBF7AEFC00251D48016841F007
:104A100080510160006800F08050019019480168E1
:104A200041F440410160006800F4404001900120E1
:104A300007900004089002240D9480010E90062037
:104A40000F90A820109011940420129007A8FDF751
:104A50008DFE08B1FCF77BFC0F20029003940495B7
:104A60004FF4A05005904FF480500690052102A805
:104A7000FDF760FD002801D0FCF769FC13B030BDE4
:104A800040380240007000400548016841F4700160
:104A9000016003494FF000608039086070470000F2
:104AA00088ED00E00148FEF728BC0000B40D0020AE
:104AB0000148FEF722BC0000FC0D002010B504F0F8
:104AC000DDFABDE810400148FEF717BC440E002097
:104AD000F0B40268274B284C284D294EDFF8A4C0BB
:104AE00098420AD0B0F1804F07D0A04205D0A8422A
:104AF00003D0B04201D0604503D122F070024F686C
:104B00003A4398421ED0B0F1804F1BD0A04219D03A
:104B1000A84217D0B04215D0604513D0A0F1804410
:104B2000B4F5A0340ED0B4F580640BD0B4F5806435
:104B300008D014F5983405D0B4F5806402D0B4F5EB
:104B4000806403D122F44072CC6822434C6922F085
:104B50008002224302608A68C2620A6882629842C6
:104B600001D0604501D10969016301214161F0BCB7
:104B700070470000000001400004004000080040B1
:104B8000000C00400004014001F01F0101238B4094
:104B9000D0F820C02CEA03030362036A02FA01F191
:104BA000194301627047D0F808C02CF47F4C42EAE8
:104BB0000322114341EA0C0181607047826822F0B0
:104BC0007002114341F007018160704770B4026ABE
:104BD00022F001020262036A4268D0F818C02CF089
:104BE000700C2CF0030C0C6844EA0C0C23F002034C
:104BF0008C6823430F4C104DA04201D0A84205D130
:104C000023F00803CE68334323F00403A04201D00D
:104C1000A84207D122F4807222F400724C69224328
:104C20008C6922434260C0F818C04968416303623E
:104C300070BC7047000001400004014070B4026A7B
:104C400022F010020262036A4268D0F818C02CF405
:104C5000E04C2CF4407C0C684CEA042C23F020033C
:104C60008C6843EA0413114C114DA04201D0A842B4
:104C700006D123F08003CE6843EA061323F04003F5
:104C8000A04201D0A84209D122F4806222F400623D
:104C90004C6942EA84028C6942EA84024260C0F8AC
:104CA00018C049688163036270BC7047000001400E
:104CB0000004014070B4026A22F480720262036A46
:104CC0004268D0F81CC02CF0700C2CF0030C0C685F
:104CD00044EA0C0C23F400738C6843EA0423114C5F
:104CE000114DA04201D0A84206D123F40063CE6842
:104CF00043EA062323F48063A04201D0A84209D1ED
:104D000022F4805222F400524C6942EA04128C6967
:104D100042EA04124260C0F81CC04968C1630362E1
:104D200070BC7047000001400004014010B4026AEA
:104D300022F480520262D0F820C04268C36923F492
:104D4000E04323F440730C6843EA04232CF4005C32
:104D50008C684CEA043CA0F18044B4F5803402D065
:104D6000B4F5806404D122F480424C6942EA841292
:104D70004260C36149680164C0F820C010BC70473C
:104D8000036AD0F820C02CF0010CC0F820C0D0F885
:104D900018C02CF0F00C4CEA021223F00A0319435D
:104DA000826101627047036A23F010030362D0F846
:104DB00018C0036A2CF4704C4CEA023223F0A003B2
:104DC00043EA0111826101627047000010B5044896
:104DD00007F0F7F9BDE810400148FEF707BD0000F5
:104DE0008C0E002010B5044807F0EBF9BDE8104028
:104DF0000148FEF7FBBC0000D00E002010B5806B10
:104E00000021C185C184FEF7F0FC10BD70B5846B34
:104E100020684069C0F3C01094F83D100025212996
:104E200004D118B1E584204600F070F8206840698C
:104E3000C0F3801094F83E10222904D118B1E58502
:104E4000204600F02FF8206C40F01000206420462F
:104E5000FEF7CBFC70BD10B50146886B0968096888
:104E600011F4807F02D0FFF779F810BD0021C184D2
:104E70000168143151E8002F22F0800241E800233C
:104E8000002BF5D101680C3151E8002F42F04002AF
:104E900041E80023002BF5D110BD10B5806BFFF762
:104EA0005EF810BD01680C3151E8002F22F49072B9
:104EB00041E80023002BF5D10168143151E8002F9F
:104EC00022F0010241E80023002BF5D1016B0129FA
:104ED00009D101680C3151E8002F22F0100241E89D
:104EE0000023002BF5D1202180F83E100021016322
:104EF000704710B50168CA6822F04002CA602021DC
:104F000080F83D10FFF72AF8002010BD01680C3131
:104F100051E8002F22F0C00241E80023002BF5D118
:104F2000202180F83D10704708B590F83E102229E6
:104F300001D0022008BD8268B2F5805F01D101690D
:104F400029B1816AB2F5805F1DD052B10BE0816A50
:104F500002685268C2F308020A80816A891C816271
:104F600009E002697AB10268526802F07F020A70B1
:104F7000816A491C8162C18D491E0904090CC185E1
:104F800005D0002008BD026852680A70F0E7016889
:104F9000CA6822F02002CA600168CA6822F48072DE
:104FA000CA6001684A6922F001024A61202180F842
:104FB0003E10016B012903D0FEF77EFF002008BDE3
:104FC0000021016301680C3151E8002F22F010022A
:104FD00041E80023002BF5D101680A6812F0100F98
:104FE00002D00A6849680091818DFEF7FDFBE5E774
:104FF0002DE9F041044620680169E26821F440513E
:10500000114301612169A068E269084361691143A4
:1050100001432068C26822F4037222F4144211434F
:10502000C16020684169A26921F440711143416166
:105030002068A0F18041B1F588312CD0B1F58061B4
:1050400029D0FDF73BFB8446E16900201927254D57
:105050003226B1F5004F22D06068830F8200ACFB8E
:105060000701FBF735F90146A5FB002040097A420C
:10507000424301EB820106EB0111A5FB0121490925
:1050800001F0F00202EB001001F00F01084421686A
:105090008860BDE8F081FDF721FB8446D4E76168B4
:1050A0004A1840EB0003ACFB0701FBF711F903467C
:1050B000A5FB0010410918460A016FF01803594377
:1050C00000EB810006EBC000A5FB0010400900F0DA
:1050D000F80102EB410100F00700084421688860F4
:1050E000BDE8F0811F85EB5190F83D10212901D0DA
:1050F000022070478168B1F5805F01D1016961B11B
:10510000016A4A1C0262026809785160C18C491E1A
:105110000904090CC1840AD013E0016A02680988F5
:10512000C1F308015160016A891C0162EEE7016860
:10513000CA6822F08002CA600068C16841F040017C
:10514000C16000207047000010B5074807F039F82B
:105150000548FEF74BFB64210448FCF728F8044996
:105160000020087010BD0000140F0020D00800209F
:105170001C01002010B5044807F023F8BDE81040DA
:105180000148FEF733BB0000580F002010B504485B
:10519000FFF7CEFABDE810400248FEF727BB00003B
:1051A000681D00209C0F0020FEE7000030B505467A
:1051B0000C46002D01D0022C01D8002030BD0A4839
:1051C000A11E02882846FCF7C3F82919C2B211F8BB
:1051D000023C9A4206D111F8011CB1EB102F01D10B
:1051E000012030BD002030BD9801002030B50546BB
:1051F0000C46002D01D0022C01D8002030BDFF222A
:10520000611E2846FCF7BCF8291911F8011C8142DF
:1052100001D1012030BD002030BD03B40198410010
:10522000009850EAC12018BF04204A0D18BF40F072
:10523000010040F2FF72B2EB515F08BF40F0020084
:10524000012808BF052002B070474100080218BFBE
:1052500004200A0E18BF40F001004FF07F4232EAEE
:10526000010108BF40F00200012808BF0520704777
:1052700070B5C1482DED020B2DED0E8B82B0119D46
:1052800025F000449FEDBEDB9FEDBFEB84423EDB8B
:10529000A4F140511098A1F17F6108430FD0BC48A0
:1052A000844202DC28D1109830B39DED100B02B07F
:1052B000BDEC0E8B02B0BDE8704001F005BB9DED6A
:1052C000100B53EC1D2B51EC100BFBF7FDF89DED73
:1052D000100B41EC180B53EC1E2B51EC100BFBF791
:1052E000F3F853EC182BFBF748F841EC100B02B025
:1052F000BDEC0E8B02B070BD012001F03FFB02B08F
:10530000BDEC0E8B02B0BDE8704001F0F1BAA148CF
:105310009FEDA18B844256DA9DED100BB4F1795FBD
:105320000ADA51EC100BFFF778FF042808BF01F0F0
:10533000EFFA9DED100BDAE753EC102B51EC100B4C
:10534000FBF7C2F841EC190B95480621B0EE490A6B
:10535000F0EE690A784401F0A3F953EC192B51ECF3
:10536000100BFBF7B1F841EC1A0B8E48B0EE490A6E
:10537000F0EE690A0421784401F092F953EC192BFC
:1053800051EC100BFBF7A0F853EC182BFAF7F5FFD4
:1053900041EC100B51EC1A0B53EC102BFBF706F9F8
:1053A000CDE900019DED000B53EC102B9DED100B92
:1053B00051EC100BFBF788F89DED101B53EC112BF3
:1053C000FAF7DBFFD2E09DED100B51EC100B03F070
:1053D000A6FE53EC182BFBF774F89FED730BCDE989
:1053E000000153EC102B9DED000B51EC100BFBF763
:1053F0006BF841EC190B6E480621B0EE490AF0EE4D
:10540000690A784401F04CF953EC192B51EC100B5C
:10541000FBF75AF841EC1B0B6648B0EE490AF0EE78
:10542000690A0421784401F03BF953EC192B51EC43
:10543000100BFBF749F853EC182BFAF79EFF41ECE1
:105440001C0B51EC190B06F065FE41EC180B5A4889
:105450009FED5BABA04222DC53EC1C2B51EC1B0BF1
:10546000FBF7A4F8CDE900019DED000B51EC180B02
:1054700053EC102BFBF728F853EC182BFAF77DFFB1
:1054800053EC1A2BFBF720F853EC1D2BFBF716F807
:1054900053EC1E2BFBF715F841EC100B5FE08DED84
:1054A000008B002000909DED000B51EC180B53EC8D
:1054B000102BFAF762FF9DED000B41EC1E0B53EC35
:1054C000102B51EC100BFAF7FFFF53EC192BFAF7E6
:1054D000F8FF53EC1E2BFBF769F841EC190B53EC6A
:1054E0001C2B51EC1B0BFBF761F841EC1B0B53EC35
:1054F0001A2B51EC190BFAF7E7FF53EC1D2BFAF7B7
:10550000E0FF41EC190B53EC1A2B51EC180BFAF796
:10551000DBFF53EC1B2BFAF7D7FF53EC192BFAF7F1
:10552000CDFF9DED000B41EC180B53EC1A2B51EC09
:10553000100BFAF7C9FF9FED249B53EC192BFAF7D8
:10554000C0FF41EC100B51EC180B53EC102BFAF789
:10555000B5FF53EC192BFAF7B4FF41EC100B002DFB
:105560003FF7C5AE51EC100B81F0004141EC100B40
:10557000BDE60000000000000000F03F0000000059
:10558000075C143326A6913C182D4454FB21F93FA7
:105590000000F07F0000E03F000000000000F03F4E
:1055A000507A00005E7A0000000000000000E03F3A
:1055B000A2790000B07900003333EF3F0000000013
:1055C0000000000000000040182D4454FB21E93F7A
:1055D00070B59B482DED020B2DED068B079D25F038
:1055E0000044A04218DC9748844202DC0AD10698A5
:1055F00040B19DED060BBDEC068B02B0BDE87040DE
:1056000001F062B9002DCCBF9FED8F0B9FED900B89
:10561000BDEC068B02B070BD8F48A04215DD8F48EF
:10562000A042D8BF4FF0FF3458DD9DED060B51EC82
:10563000100BFFF7F2FD042808BF01F069F99DED9A
:10564000060BBDEC068B02B070BD9DED060B51EC58
:10565000100B03F064FDCDE9060181489FED828BBC
:10566000A0423CDD8248A0421FDD00249FED82ABBA
:105670009DED060B53EC1A2B51EC100BFAF77DFE47
:105680009DED060B41EC190B53EC1A2B51EC100B52
:10569000FAF71AFF53EC182BFAF710FF53EC192BFB
:1056A000FAF784FFCDE9060149E09DED060B0124E0
:1056B00053EC182B51EC100BFAF75FFE9DED060B27
:1056C00041EC190B53EC182B51EC100BFAF7F6FECA
:1056D00053EC192BFAF76AFFCDE906012FE0684871
:1056E000A0421FDD02249FED689B9DED060B53EC4D
:1056F000192B51EC100BFAF7E7FE53EC182BFAF7C5
:105700003CFE9DED060B41EC180B53EC192B51ECB4
:10571000100BFAF7D3FE53EC182BFAF747FFCDE93D
:1057200006010CE09DED060B032453EC102B9FEDBE
:10573000580B51EC100BFAF739FFCDE906019DED3E
:10574000060B53EC102B51EC100BFAF7BDFE41EC9D
:10575000180B53EC182BFAF7B7FE41EC190B4E4817
:105760000621B0EE490AF0EE690A784400F098FF8D
:1057700053EC182B51EC100BFAF7A6FE41EC180B6A
:105780004648B0EE490AF0EE690A0521784400F077
:1057900087FF53EC192B51EC100BFAF795FE41ECF7
:1057A000100B51EC180B53EC102B002C0EDAFAF7FF
:1057B000E4FD9DED061B53EC112BFAF785FE9DEDE4
:1057C000061B53EC112BFAF77CFE35E0FAF7D5FDFA
:1057D0009DED061B53EC112BFAF776FE41EC100BF6
:1057E0002F48784400EBC40090ED001B51EC100BE7
:1057F00053EC112BFAF762FE9DED061B53EC112BB7
:10580000FAF75CFE41EC100B2648784400EBC4002C
:1058100090ED001B51EC100B53EC112BFAF751FEDD
:1058200041EC100B002DA2BFBDEC068B02B070BD89
:1058300051EC100B81F0004141EC100B01E700002E
:10584000000010440000F07F182D4454FB21F93F64
:10585000182D4454FB21F9BF0000DC3F0000203E1E
:105860000000F33F00000000000000000000F03FD7
:105870000000E63F000000000000000000000040C3
:105880000080034000000000000000000000F83F1E
:10589000000000000000F0BF22770000D876000072
:1058A000627600001A76000070B56B4E2DED040B89
:1058B0002DED028B82B0DDF81CC0DDE905235C42D2
:1058C0002CF000411C4341EAD474049D22F00040B6
:1058D000B44205D86C422C4340EAD474B4420BD98C
:1058E0009DED061B9DED040B02B0BDEC028B04B0D8
:1058F000BDE8704000F0F2BFACF14054A4F17F6409
:105900001C430BD0022404EAAC7444EAD27405436D
:105910009FED538B9FED542B07D015E09DED040BAD
:1059200051EC100B01F02EF942E0002C11BF012CBC
:105930009DED040B02B0BDEC028B04BF04B070BD42
:10594000022C38D0032C3BD00B439FED491B9FED1D
:105950004A0B0AD0B14218D1B04209D121F080419E
:1059600020F08040079105900FE0002A15DA10E042
:10597000434B7B44002C08BF93ED000B0DD0012C52
:1059800010D0022C17D0032C1AD0B0421DD1002AFF
:1059900003DAB0EE410AF0EE610A02B0BDEC028B10
:1059A00004B070BD93ED000B51EC100B81F0004181
:1059B00041EC100BF1E7B0EE480AF0EE680AECE7B4
:1059C000B0EE420AF0EE620AE7E7401A00153C2802
:1059D000C8BF8DED000B19DCBCF1000FBEBF10F18C
:1059E0003C0F9FED290B8DED000B0FDB9DED060BA2
:1059F00053EC102B9DED040B51EC100BFAF7D6FD78
:105A000003F08DFB01F0BEF8CDE90001002C08BFCA
:105A10009DED000BC1D0012C10D0022C9FED1C0B72
:105A200053EC102B9DED000B51EC100B0DD0FAF741
:105A300045FD53EC182BFAF741FDB9E7019880F0CA
:105A4000004001909DED000BA7E7FAF737FD53ECFE
:105A5000182BFAF736FDABE70000F07F00000000DE
:105A6000182D4454FB210940182D4454FB2109C032
:105A7000182D4454FB21F9BF182D4454FB21F93F44
:105A80007A75000000000000000000000000000027
:105A9000075C143326A6A13C10EE100A10B510EED8
:105AA000901A4FF0684202EB40032DED028BB3F1E8
:105AB000654F3CBF02EB4102B2F1654F7CD200BFA3
:105AC000C0F3C753C1F3C7529A1A1B2A09DD10F05D
:105AD000004F14BF9FED6E0A9FED6E0ABDEC028B66
